:030000000210E506
:0C10E500787FE4F6D8FD75812102112C03
:1015B000D3EF9400EE9400401600000075080B7500
:0F15C00009BED509FDD508FAEF1F70E41E80E1C2
:0115CF0022F9
:1016A100D3EF9400EE9400400A000000EF1F70F0A9
:0416B1001E80ED2288
:1016420043BC807F0A7E001215B053DEFC43DE0CE1
:0A16520053BCDF53A8DF43DE202263
:10158F00E4FDFC53BCF0EF444042BCE5BC30E5FB4E
:10159F0053BCDF53BCBFAFBDEFADBEFCEDAE04FF20
:0115AF002219
:1014D40075941AE4F59390FE1074E0F0E4F59275B7
:1014E4009170A37489F075960FE4F595A374F0F0E8
:1014F40075B202E4F5B1A374FCF075B480E4F5B3FD
:0E150400A3747FF0E4F5CAF5C9A3741FF022AA
:101549003D3D3D3D3D3D3D3D3D3D20636F64652055
:101559007374617274203D3D3D3D3D3D3D3D3D3DD2
:04156900200D0A0047
:10140A0043BA801214D41216C81215D012167512C5
:10141A00164212168B12165C1216B51214521216B6
:10142A00DAD2AFE490010BF07BFF7A157949120109
:10143A00097F057E001215B01216277F011216EADF
:08144A0012000E1215EF80F8EC
:1014520043BA8090FEB6E0F090FEEDE4F090FEEA32
:101462007470F0A3F090FEED7411F090FEF274042B
:10147200F0A37451F090FEF0E4F0A37431F090FE0A
:10148200B5E04450F090FEFD7480F090FEE0E04440
:0314920001F02244
:1016B500438E805389F0758ACD758CD4C28DD28CBA
:0316C500D2A92285
:1016DA0053D1FDE4F5D575D4DC43D10843AF2022BC
:1016750075AC1053ACBF438E0475D7E875D6FF43E0
:061685008E1043AF0822A5
:10168B0075841043844043D12075D3E875D2FF4352
:06169B00D18043AF1022D4
:040C48004101060060
:10165C00E4900000F0900081F0900101F0F0A3F014
:09166C00A3F0A3F0A3F0C2842254
:030093000211FC5B
:1011FC00C0E0C083C082C0D075D000C007E5843089
:10120C00E12A5384FD900101E0601AA3E0FF04F091
:10121C0074012FF582E43400F583E0F5859001012B
:10122C00E014F08007900102E4F0C284E58430E021
:10123C00335384FE900000E07021900105E0D394BC
:10124C00804002E4F0900105E02481F582E4340052
:10125C00F583E585F0900105E004F0900103E4F0DE
:0F126C00A37405F0D007D0D0D082D083D0E03269
:03000B0002149547
:10149500C0E0C083C082C0D0900103E07002A3E029
:1014A5006024900104E024FFF0900103E034FFF094
:1014B500E07002A3E0700F900105E0D394004006B0
:0F14C5009000007401F0D0D0D082D083D0E032FC
:03008B0002156DEE
:10156D00C0E0C083C082E5AC30E10853ACFD900112
:10157D0006E4F0E5AC30E00353ACFED082D083D06E
:02158D00E0324A
:0B007C008FAD900106E070FA04F02246
:10160C00D2917F027E001216A1C2917F197E001228
:0B161C0015B0D2917F1E7E000216A1C7
:10127B00E490020FF090020EF03091FD7F287E007B
:10128B001216A130911F2091FD90020FE0FF9002EA
:10129B000EE0FEC374079EFEF87401088002C33390
:1012AB00D8FC4F801B90020FE0FF90020EE0FEC3B4
:1012BB0074079EFEF87401088002C333D8FCF45FF8
:1012CB0090020FF090020EE004F0E0C3940840A9E6
:0512DB0090020FE0FF8E
:0112E00022EB
:1012E10012160C20915D3091FD2091FD12127B9020
:1012F100020AEFF012127B90020BEFF012127B90B8
:10130100020CEFF012127B90020DEFF012127BD261
:101311009190020BE0FD90020AE0F92DFDE433FC0F
:1013210090020CE0FE7A002DFDEA3CFCA3E02DFDCD
:10133100EA3CFCEFB5050CEAB5040890010CEEF0AF
:03134100A3E9F02D
:011344002286
:100C4C0060FC010E03D503FA04200446046D0495E0
:100C5C0004BE04E70510053A0565059005BB05E7DC
:100C6C000613063F066C069906C606F30720074DC9
:100C7C00077A07A707D40800082D0859088508B17A
:100C8C0008DC09070931095B098409AD09D609FD9E
:100C9C000A240A4B0A710A960ABB0ADE0B020B24C1
:100CAC000B460B670B870BA70BC60BE40C020C1E39
:100CBC000C3A0C560C700C8A0CA40CBC0CD40CEC1E
:100CCC000D020D190D2E0D430D570D6B0D7E0D9054
:100CDC000DA20DB40DC50DD50DE50DF50E040E12BE
:100CEC000E200E2E0E3B0E480E550E610E6D0E781C
:100CFC000E830E8D0E970EA10EAB0EB40EBD0EC64E
:100D0C000ECF0ED70EDF0EE70EEF0EF60EFD0F0414
:100D1C000F0B0F110F170F1D0F230F290F2F0F354F
:100D2C000F3A0F3F0F440F490F4E0F530F580F5CE4
:100D3C000F600F650F690F6D0F710F740F780F7CBB
:0E11710090020EEBF0A3EAF0A3E9F0A3EDF07C
:10117F00E4900215F0A3F0900214F0900211E01425
:10118F00FF900214E0FEC39F505A90020EE0FBA3A3
:10119F00E0FAA3E0F975F002EEA4F58285F0831270
:1011AF000889FF900212E0FCA3E0FDC39FEC95F0CD
:1011BF00402AA3E02401FFE433FEEF25E0FFEE33E6
:1011CF00FE8F828E83120889FFC3ED9FEC95F0503E
:1011DF000B900214E0FFA3E4F0A3EFF0900214E0F1
:0C11EF0004F08097900215E0FEA3E0FFE2
:0111FB0022D1
:0513A90090020AEFF0C4
:1013AE00E490020CF0A3F090020BF090020AE0FF22
:1013BE0012158F90020DE02FF090020CE03EF0908F
:1013CE00020BE004F0E0C3940A40E090020CE0FE51
:1013DE00A3E0FF7C007D0A12083490020CEEF0A30D
:1013EE00EFF07B017A01790E90020CE0FFA3E09002
:0C13FE000212CFF0A3EFF07D7E0211710F
:10151200AC07ECB40116ED75F0B8A4FFC374509F8C
:10152200FE740495F090FEF9F0A3CEF0ECB402162E
:10153200ED75F0B8A4FFC374509FFE740495F0904B
:07154200FEFBF0A3CEF02236
:1016C800C2C7C2A1C2A0D2A3D2A2E4900250F0A382
:0216D800F022FE
:1015EF0090010BE0B401157F041213A9900107EFCE
:0D15FF00F01212E1121627E490010BF02209
:10162700900246E0B40111A3E0FF900107E0C39FD9
:0B1637005003D2A022C2A022C2A022B9
:0A16EA00EFB40103D2A122C2A12235
:1015D000E4900254F0A3F0A37407F0A374D0F0E4F5
:0F15E000A3F0A3F0A3F0A3F0A3F0A3F0A3F022D5
:100ADB0030CB0A900254E054FCF04403F020CB10CE
:100AEB00900258E0700A900254E054FCF04402F07B
:100AFB0020CB11900258E0B4010A900254E054FC50
:100B0B00F04401F030860A900254E054F3F0440CA8
:100B1B00F0208610900259E0700A900254E054F3D2
:100B2B00F04408F0208611900259E0B4010A9002BB
:100B3B0054E054F3F04404F030900A900254E05423
:100B4B00CFF04430F020901090025AE0700A9002DF
:100B5B0054E054CFF04420F020901190025AE0B4AE
:100B6B00010A900254E054CFF04410F030930A90F5
:100B7B000254E0543FF044C0F020931090025BE02D
:100B8B00700A900254E0543FF04480F0209311908F
:100B9B00025BE0B4010A900254E0543FF04440F091
:100BAB0030C00A900255E054FCF04403F020C01012
:100BBB0090025CE0700A900255E054FCF04402F0A5
:100BCB0020C01190025CE0B4010A900255E054FC85
:100BDB00F04401F030B30A900255E054F3F0440CAA
:100BEB00F020B31090025DE0700A900255E054F3D0
:100BFB00F04408F020B31190025DE0B4010A9002BA
:100C0B0055E054F3F04404F030C80A900255E05418
:100C1B00CFF04430F020C81090025EE0700A9002D2
:100C2B0055E054CFF04420F020C81190025EE0B4A0
:0D0C3B00010A900255E054CFF04410F02261
:100D4C0042023200004202340000420236000042ED
:100D5C000238000042023A000042023C000042020B
:100D6C003E000042024000004202420000420244A7
:020D7C00000075
:03009B0002040359
:10040300C0E0C0F0C083C082C0D075D000C000C0BF
:0D04130001C002C003C004C005C006C00740
:1004200090010BE07026900233E004F07006900219
:1004300032E004F0900232E07004A3E06464700CD7
:1004400090010B04F0900232E4F0A3F020CB2E9048
:100450000235E004F07006900234E004F090025699
:10046000E0FEA3E0FFC3900235E09F900234E09EDF
:100470004016E4F0A3F090025804F0800B90023490
:10048000E4F0A3F0900258F020862E900237E004AA
:10049000F07006900236E004F0900256E0FEA3E011
:1004A000FFC3900237E09F900236E09E4016E4F0D2
:1004B000A3F090025904F0800B900236E4F0A3F010
:1004C000900259F020902E900239E004F0700690CE
:1004D0000238E004F0900256E0FEA3E0FFC3900271
:1004E00039E09F900238E09E4016E4F0A3F09002BD
:1004F0005A04F0800B900238E4F0A3F090025AF016
:1005000020932E90023BE004F0700690023AE00443
:10051000F0900256E0FEA3E0FFC390023BE09F9004
:10052000023AE09E4016E4F0A3F090025B04F080F3
:100530000B90023AE4F0A3F090025BF020C02E9002
:10054000023DE004F0700690023CE004F090025698
:10055000E0FEA3E0FFC390023DE09F90023CE09EDE
:100560004016E4F0A3F090025C04F0800B90023C93
:10057000E4F0A3F090025CF020B32E90023FE00480
:10058000F0700690023EE004F0900256E0FEA3E018
:10059000FFC390023FE09F90023EE09E4016E4F0D1
:1005A000A3F090025D04F0800B90023EE4F0A3F013
:1005B00090025DF020C82E900241E004F070069099
:1005C0000240E004F0900256E0FEA3E0FFC3900278
:1005D00041E09F900240E09E4016E4F0A3F09002BC
:1005E0005E04F0800B900240E4F0A3F090025EF015
:1005F000900252E06401600302067D900243E00431
:10060000F07006900242E004F0900248E0FEA3E0A1
:10061000FFD3900243E09F900242E09E500A900276
:1006200050E0FD7F0112151290024AE0FEA3E0FFA8
:10063000900248E0FCA3E0FD2FFFEC3EFE9002425A
:10064000E0FAA3E0FBC39FEA9E500DEB9DEA9C40BD
:1006500007E4FD7F0112151290024AE0FEA3E0FFBD
:10066000900249E02FFF900248E03EFEC390024313
:10067000E09F900242E09E4004E4F0A3F090025319
:10068000E06401600302070A900245E004F070068E
:10069000900244E004F090024CE0FEA3E0FFD3900F
:1006A0000245E09F900244E09E500A900251E0FD16
:1006B0007F0212151290024EE0FEA3E0FF90024C62
:1006C000E0FCA3E0FD2FFFEC3EFE900244E0FAA325
:1006D000E0FBC39FEA9E500DEB9DEA9C4007E4FDC2
:1006E0007F0212151290024EE0FEA3E0FF90024D31
:1006F000E02FFF90024CE03EFEC3900245E09F9049
:0A0700000244E09E4004E4F0A3F080
:10070A00D007D006D005D004D003D002D001D00043
:0B071A00D0D0D082D083D0F0D0E032ED
:10000E00900000E064017065F07B017A00798190C8
:10001E000105E024FEFD121345AD07AC0690010567
:10002E00E0FB247FF582E43400F583E0FE74802B40
:10003E00F582E43400F583E0FBEBFFE4900105F07C
:10004E00EDB50729ECB50625900081E0B4EB1EA3B3
:10005E00E024FC600F24FE600E24F6600D240D706B
:0D006E000C02104B020E88020D7F12094695
:01007B002262
:10104B009002627403F0900085A3E025E0900261AA
:10105B00F0900083E0FEA3E0FDEDFF900264EEF064
:10106B00A3EFF090000174EBF0A37403F090026116
:10107B00E0900003F0900261E0F9C313FD9002656C
:10108B00E02DFD900264E03400FCC3EF9DEE9C501C
:10109B0040E4900260F090025FF090025FE0FD9000
:1010AB000262E0FC04F074012CF582E43400F58359
:1010BB00EDF0900260E0FD900262E0FC04F0740140
:1010CB002CF582E43400F583EDF00FBF00010E80A8
:0A10DB00A4E92403FD7F03020F8443
:100E88009002627403F0900085A3E025E09002616F
:100E9800F0900083E0FEA3E0FDEDFF900264EEF029
:100EA800A3EFF090000174EBF0A37404F0900261DA
:100EB800E0900003F090020AEEF0A3EFF0900261D8
:100EC800E0C313FF900265E02FFF900264E0340056
:100ED800FE90020AE0FCA3E0FDC39FEC9E400302E3
:100EE8000F78E4900260F090025FF0EC7041ED142E
:100EF800601A14602014602A24037033120ADB90ED
:100F08000255E090025FF0900254801EE490025F68
:100F1800F0A3F0801A90010DE090025FF090010CB0
:100F28008008E490025FF0900107E0900260F09082
:100F3800025FE0FF900262E0FE04F074012EF58289
:100F4800E43400F583EFF0900260E0FF900262E085
:100F5800FE04F074012EF582E43400F583EFF0907E
:100F6800020BE004F0700690020AE004F0020EC5DD
:0C0F7800900261E02403FD7F04020F845E
:100D7F00900084E024FD601514602514602D14701C
:100D8F0003020E13147003020E6F020E8190008582
:100D9F00E0900247F0900086E0900246F0020E814C
:100DAF00900086E0FF1216EA020E81900085E0FDAA
:100DBF005401C43354E0FFA3E0FC131313541F4F2B
:100DCF0075F064A4FF900248E5F0F0A3EFF0ED5446
:100DDF007FC31375F064A4FFA3E5F0F0A3EFF0EC6D
:100DEF005407900250F0900085E0C4131313540180
:100DFF00FF900252F0BF0106900250E08001E4FD27
:100E0F007F018057900085E0FD5401C43354E0FF0B
:100E1F00A3E0FC131313541F4F75F064A4FF90024B
:100E2F004CE5F0F0A3EFF0ED547FC31375F064A41D
:100E3F00FFA3E5F0F0A3EFF0EC5407900251F09010
:100E4F000085E0C41313135401FF900253F0BF0148
:100E5F0006900251E08001E4FD7F0212151280120C
:100E6F00900086E075F064A4FF900256E5F0F0A3C1
:090E7F00EFF07D087F06020F84EC
:100946009002637407F0900087E0900261F09000D7
:1009560083E0FEA3E0FDEDFF900264EEF0A3EFF06E
:1009660090020AEEF0A3EFF0900261E0C313FF904D
:100976000265E02FFF900264E03400FE90020AE078
:10098600FCA3E0FDC39FEC9E4003020AD4900263E1
:10099600E02481F582E43400F583E090025FF09074
:1009A6000263E02482F582E43400F583E09002607D
:1009B600F0EC6003020ABCED146029146031147077
:1009C60003020A4E147003020AAA24046003020AF0
:1009D600BC90025FE0900247F0900260E090024611
:1009E600F0020ABC900260E0FF1216EA020ABC900E
:1009F600025FE0FD5401C43354E0FFA3E0FC13138F
:100A060013541F4F75F064A4FF900248E5F0F0A35D
:100A1600EFF0ED547FC31375F064A4FFA3E5F0F087
:100A2600A3EFF0EC5407900250F090025FE0C4137D
:100A360013135401FF900252F0BF0106900250E0DA
:100A46008001E4FD7F01805790025FE0FD5401C400
:100A56003354E0FFA3E0FC131313541F4F75F064E7
:100A6600A4FF90024CE5F0F0A3EFF0ED547FC31322
:100A760075F064A4FFA3E5F0F0A3EFF0EC54079043
:100A86000251F090025FE0C41313135401FF900269
:100A960053F0BF0106900251E08001E4FD7F02128F
:100AA60015128012900260E075F064A4FF90025661
:100AB600E5F0F0A3EFF0900263E02402F090020B61
:100AC600E004F0700690020AE004F002096E7D0868
:050AD6007F10020F84F7
:050F840090020CEDF0ED
:100F8900EF24FC600F24FE604F24F66064240D609A
:100F9900030210387B017A00790190020CE0FD12FE
:100FA900134590020DEEF0A3EFF090020DE0FEA3C1
:100FB900E0FD90020CE0FC2402F582E43400F583A4
:100FC900EDF0EEFF74012CF582E43400F583EFF0C7
:100FD90090020CE02402805378017C007D017B01A2
:100FE9007A0079817E007F081207F590020CE08073
:100FF9003A78017C007D017B017A0079817E007F4E
:10100900061207F57B017A0079017D0612134590D6
:10101900020DEEF0A3EFF090020DE0FEA3E09000C8
:1010290008F0EE900007F090020CE0900101F0D278
:10103900847F027E001215B04384027F017E000284
:0210490015B0E0
:0513450090020FEDF025
:10134A0074FFA3F0A3F012081BFF900210E0F0A3B1
:10135A00E06FF0E4FD900210E0FEA3E0FF30E01938
:10136A00EEC313FEEF13FFEE64A0FEEF6401FF90DD
:10137A000210EEF0A3EFF0800B900210E0C313F01E
:10138A00A3E013F00DEDB408CC740129F9E43AFA9C
:0E139A0090020FE014F070AEA3E0FEA3E0FF9F
:0113A8002222
:1010F10002140AE493A3F8E493A34003F68001F2F7
:1011010008DFF48029E493A3F85407240CC8C333FF
:10111100C4540F4420C8834004F456800146F6DFCE
:10112100E4800B0102040810204080900C48E47E0A
:10113100019360BCA3FF543F30E509541FFEE493C3
:10114100A360010ECF54C025E060A840B8E493A38A
:10115100FAE493A3F8E493A3C8C582C8CAC583CAB5
:10116100F0A3C8C582C8CAC583CADFE9DEE780BE6D
:010D7E000074
:10072500E709F608DFFA8046E709F208DFFA803EB6
:1007350088828C83E709F0A3DFFA8032E309F608A3
:10074500DFFA8078E309F208DFFA807088828C830B
:10075500E309F0A3DFFA806489828A83E0A3F608BF
:10076500DFFA805889828A83E0A3F208DFFA804C99
:1007750080D280FA80C680D4806980F28033801070
:1007850080A680EA809A80A880DA80E280CA8033D9
:1007950089828A83ECFAE493A3C8C582C8CCC58351
:1007A500CCF0A3C8C582C8CCC583CCDFE9DEE78021
:1007B5000D89828A83E493A3F608DFF9ECFAA9F0A0
:1007C500EDFB2289828A83ECFAE0A3C8C582C8CCF6
:1007D500C583CCF0A3C8C582C8CCC583CCDFEADE0F
:1007E500E880DB89828A83E493A3F208DFF980CC71
:1007F50088F0EF60010E4E60C388F0ED2402B4046A
:100805000050B9F582EB2402B4040050AF23234510
:06081500822390077573B9
:10081B00BB010689828A83E0225002E722BBFE02DB
:09082B00E32289828A83E493220E
:10083400BC000BBE0029EF8DF084FFADF022E4CCA8
:10084400F875F008EF2FFFEE33FEEC33FCEE9DEC71
:10085400984005FCEE9DFE0FD5F0E9E4CEFD22EDB7
:10086400F8F5F0EE8420D21CFEADF075F008EF2F01
:10087400FFED33FD4007985006D5F0F222C398FDF2
:050884000FD5F0EA228F
:10088900BB0110E58229F582E5833AF583E0F5F0AD
:10089900A3E0225009E92582F886F008E622BBFE8A
:1008A9000AE92582F8E2F5F008E222E5832AF583D0
:0808B900E993F5F0A3E9932295
:10009E00E508240DF582E43402F583E0050822908C
:1000AE00020A30070390020DE475F00112090002F6
:1000BE00081B2000E97F2ED2008018EF540F2490E9
:1000CE00D43440D4FF30040BEF24BFB41A005003D5
:1000DE002461FFE50960021509050CE50C700205A7
:1000EE000B30070E90020AE475F001120900EF02C0
:1000FE0008EE02007C7403D2078003E4C207F50801
:10010E0090020A120917E4F509F50BF50CE50960E2
:10011E00077F201200E180F5750AFFC201C200C2FE
:10012E0002C203C205C206C2081200ADFF700D3036
:10013E0007057F001200F2AF0CAE0B22B4255FC292
:10014E00D5C2041200ADFF24D0B40A00501A75F0C7
:10015E000A780930D50508B6FF0106C6A426F62092
:10016E00D5047002D20380D924CFB41A00EF500404
:10017E00C2E5D2040202F3D20180C6D20080C0D200
:10018E000280BCD2D580BAD20580B47F201200E1A5
:10019E002002077401B5090040F112009EFF120003
:1001AE00E102011BD208D206809512009EFB1200BE
:1001BE009EFA12009EF94A4B700679C47A037BFFB1
:1001CE0020022EE509602A7E008E827583001208B9
:1001DE00C160060EEE650A70F0C2D5EBC0E0EAC053
:1001EE00E0E9C0E0EE12033AD0E0F9D0E0FAD0E058
:1001FE00FB12081BFF60AAEBC0E0EAC0E0E9C0E01A
:10020E001200E1D0E02401F9D0E03400FAD0E0FB96
:10021E00E50A0460DCD50AD980877BFF7A0379363C
:10022E00D202809C791080027908C206C20880082A
:10023E00D2D5790A8004790AC2D5E50A047002F58E
:10024E000AE4FAFDFEFF12009EFC7B082001131249
:10025E00009EFD7B1030000A12009EFE12009EFFD3
:10026E007B20EC3382D592D55013C3E43000069F29
:10027E00FFE49EFEE42001039DFDE49CFCE4CBF82C
:10028E00C201EC700CCFCECDCCE824F8F870F38020
:10029E0017C3EF33FFEE33FEED33FDEC33FCEB33E0
:1002AE00FB994002FB0FD8E9EB300105F8D0E0C412
:1002BE0048B201C0E00AEC4D4E4F78207B0070C270
:1002CE00EAB50A0040BCC0E012033CD0F0D0E020FA
:1002DE000104C4C0E0C4B201C0F01200CAD0F0D50F
:1002EE00F0EB02011B12092001B8530232580189AA
:1002FE004C01854202364F023E44023E49019E4366
:08030E000244550228460228B2
:100316004502284703E450018D2D01912E01B42B8F
:1003260001952301B22003CD2A014D48000001ACFE
:100336003F3F3F00790AA2D5200314300509B910C2
:10034600020404B9080104A2D520060250010420C3
:1003560002689202B509005034C0E07F20300319CC
:100366007F30A20272067205500F120393C202C2B8
:1003760006C205C2087F30800F300503E9C0E012CF
:1003860000E1300503D0E0F9D0E0B509CC3005171F
:100396007F30B9100C1200E17F583004077F788057
:1003A60003B908031200E13002057F2D0200E17F48
:1003B600202008F87F2B2006F322920280CF286E99
:1003C600756C6C2900D20112009E3001F8C20178CA
:1003D6000930D50108F602014D2D50434958120047
:1003E6009E2403B405004001E49003DF931200D27B
:0D03F600743A1200D2D203750904020232DB
:1008C100BB010CE58229F582E5833AF583E02250EC
:1008D10006E92582F8E622BBFE06E92582F8E22236
:0D08E100E58229F582E5833AF583E4932250
:1008EE00BB010689828A83F0225002F722BBFE01E9
:0208FE00F322E3
:10090000F8E0FBA3A3E0F925F0F0E5821582700280
:070910001583E0FA38F02224
:09091700EBF0A3EAF0A3E9F022E1
:10092000D083D082F8E4937012740193700DA3A366
:1009300093F8740193F5828883E47374029368607A
:06094000EFA3A3A380DF7A
:00000001FF
