:030000000210CC1F
:0C10CC00787FE4F6D8FD75812102111335
:10156900D3EF9400EE9400401600000075080B7547
:0F15790009BED509FDD508FAEF1F70E41E80E109
:011588002240
:1015E900D3EF9400EE9400400A000000EF1F70F062
:0415F9001E80ED2241
:10143F0075941AE4F59390FE1074E0F0E4F592754C
:10144F009170A37489F075960FE4F595A374F0F07D
:10145F0075B202E4F5B1A374FCF075B480E4F5B392
:0E146F00A3747FF0E4F5CAF5C9A3741FF02240
:101523003D3D3D3D3D3D3D3D3D3D20636F6465207B
:101533007374617274203D3D3D3D3D3D3D3D3D3DF8
:04154300200D0A006D
:10147D0043BA8012143F1216101214F21215BD1237
:10148D0015D31215A41215FD1213BD121622D2AFCB
:10149D0090017A7401F07BFF7A1579231205CF7FC5
:0E14AD00327E0012156912000E12163280F8FF
:1013BD0043BA8090FEB6E0F090FEEDE4F090FEEAC8
:1013CD007470F0A3F090FEED7411F090FEF27404C1
:1013DD00F0A37451F090FEF0E4F0A37431F090FEA0
:1013ED00B5E04450F090FEFD7480F090FEE0E044D6
:0313FD0001F022DA
:1015FD00438E805389F0758ACD758CD4C28DD28C73
:03160D00D2A9223D
:1016220053D1FDE4F5D575D4DC43D10843AF202274
:1015BD0075AC1053ACBF438E0475D7E875D6FF4399
:0615CD008E1043AF08225E
:1015D30075841043844043D12075D3E875D2FF430B
:0615E300D18043AF10228D
:04136300410106003E
:1015A400E4900000F0900081F0900101F0F0A3F0CD
:0915B400A3F0A3F0A3F0C284220D
:03009300021158FF
:10115800C0E0C083C082C0D075D000C007E584302D
:10116800E12A5384FD900101E0601AA3E0FF04F036
:1011780074012FF582E43400F583E0F585900101D0
:10118800E014F08007900102E4F0C284E58430E0C6
:10119800335384FE900000E07021900105E0D39461
:1011A800804002E4F0900105E02481F582E43400F7
:1011B800F583E585F0900105E004F0900103E4F083
:0F11C800A37405F0D007D0D0D082D083D0E0320E
:03000B00021400DC
:10140000C0E0C083C082C0D0900103E07002A3E0BE
:101410006024900104E024FFF0900103E034FFF029
:10142000E07002A3E0700F900105E0D39400400645
:0F1430009000007401F0D0D0D082D083D0E03291
:03008B0002154714
:10154700C0E0C083C082E5AC30E10853ACFD900138
:1015570006E4F0E5AC30E00353ACFED082D083D094
:02156700E03270
:0B007C008FAD900106E070FA04F02246
:1011D700E490010CF090010BF03091FD7F287E0028
:1011E7001215E930911F2091FD90010CE0FF90014D
:1011F7000BE0FEC374079EFEF87401088002C33338
:10120700D8FC4F801B90010CE0FF90010BE0FEC360
:1012170074079EFEF87401088002C333D8FCF45F9C
:1012270090010CF090010BE004F0E0C3940840A992
:0512370090010CE0FF36
:01123C00228F
:10158900D2917F027E001215E9C2917F1E7E001260
:0B1599001569D2917F1E7E000215E94B
:10123D0012158920915D3091FD2091FD1211D790ED
:10124D000107EFF01211D7900108EFF01211D790AE
:10125D000109EFF01211D790010AEFF01211D7D258
:10126D0091900108E0FD900107E0F92DFDE433FCBC
:10127D00900109E0FE7A002DFDEA3CFCA3E02DFD76
:10128D00EA3CFCEFB5050CEAB50408900178EEF0E8
:03129D00A3E9F0D2
:0112A000222B
:1014BB00AC07ECB40116ED75F0B8A4FFC374509FE4
:1014CB00FE740495F090FEF9F0A3CEF0ECB4021686
:1014DB00ED75F0B8A4FFC374509FFE740495F090A3
:0714EB00FEFBF0A3CEF0228E
:10161000C2C7C2A1C2A0D2A3D2A2E490016DF0A31E
:02162000F022B6
:1016320090017AE0B4010812123DE490017AF0229E
:1014F200E4900151F0A3F0A3F0A3F0A37407F0A3CA
:1015020074D0F0E4A3F0A3F0A3F0A3F0A3F0A3F04F
:10151200A3F0A3F0A3F0A3F0A3F0A3F0A3F0A3F031
:0115220022A6
:1008C90030CB0A900151E054FCF04403F020CB10E6
:1008D900900157E0700A900151E054FCF04402F095
:1008E90020CB11900157E0B4010A900151E054FC6A
:1008F900F04401F030860A900151E054F3F0440CC1
:10090900F0208610900158E0700A900151E054F3EC
:10091900F04408F0208611900158E0B4010A9001D2
:1009290051E054F3F04404F030900A900151E0543E
:10093900CFF04430F0209010900159E0700A9001F6
:1009490051E054CFF04420F0209011900159E0B4C7
:10095900010A900151E054CFF04410F030930A900D
:100969000151E0543FF044C0F020931090015AE047
:10097900700A900151E0543FF04480F020931190A7
:10098900015AE0B4010A900151E0543FF04440F0AB
:1009990030C00A900152E054FCF04403F020C0102A
:1009A90090015BE0700A900152E054FCF04402F0BF
:1009B90020C01190015BE0B4010A900152E054FC9F
:1009C900F04401F030B30A900152E054F3F0440CC2
:1009D900F020B31090015CE0700A900152E054F3EA
:1009E900F04408F020B31190015CE0B4010A9001D1
:1009F90052E054F3F04404F030C80A900152E05434
:100A0900CFF04430F020C81090015DE0700A9001E9
:100A190052E054CFF04420F020C81190015DE0B4B9
:100A2900010A900152E054CFF04410F030B50A9019
:100A39000153E054FCF04403F020B51090015EE04E
:100A4900700A900153E054FCF04402F020B5119073
:100A5900015EE0B4010A900153E054FCF04401F056
:100A690030B70A900153E054F3F0440CF020B7106A
:100A790090015FE0700A900153E054F3F04408F0EC
:100A890020B71190015FE0B4010A900153E054F3DB
:100A9900F04404F030C20A900153E054CFF04430DE
:100AA900F020C210900160E0700A900153E054CF29
:100AB900F04420F020C211900160E0B4010A9001D5
:100AC90053E054CFF04410F030C40A900153E0547D
:100AD9003FF044C0F020C410900161E0700A900119
:100AE90053E0543FF04480F020C411900161E0B418
:100AF900010A900153E0543FF04440F030A50A90B8
:100B09000154E054FCF04403F020A510900162E088
:100B1900700A900154E054FCF04402F020A51190B1
:100B29000162E0B4010A900154E054FCF04401F080
:100B390030A70A900154E054F3F0440CF020A710B8
:100B4900900163E0700A900154E054F3F04408F016
:100B590020A711900163E0B4010A900154E054F315
:100B6900F04404F030C60A900154E054CFF0443008
:100B7900F020C610900164E0700A900154E054CF4F
:100B8900F04420F020C611900164E0B4010A9001FC
:090B990054E054CFF04410F022A6
:1013670042012F00004201310000420133000042D8
:1013770001350000420137000042013900004201F7
:101387003B000042013D000042013F000042014195
:1013970000004201430000420145000042014700AE
:1013A70000420149000042014B000042014D00008C
:0513B70042014F00009F
:03009B0002009EC2
:10009E00C0E0C0F0C083C082C0D075D000C000C028
:0D00AE0001C002C003C004C005C006C007A9
:1000BB0090017AE07026900130E004F07006900118
:1000CB002FE004F090012FE07004A3E06464700C47
:1000DB0090017A04F090012FE4F0A3F020CB2E9046
:1000EB000132E004F07006900131E004F09001550C
:1000FB00E0FEA3E0FFC3900132E09F900131E09E50
:10010B004016E4F0A3F090015704F0800B900131FE
:10011B00E4F0A3F0900157F020862E900134E00418
:10012B00F07006900133E004F0900155E0FEA3E07F
:10013B00FFC3900134E09F900133E09E4016E4F042
:10014B00A3F090015804F0800B900133E4F0A3F07E
:10015B00900158F020902E900136E004F07006903C
:10016B000135E004F0900155E0FEA3E0FFC39001E0
:10017B0036E09F900135E09E4016E4F0A3F090012D
:10018B005904F0800B900135E4F0A3F0900159F085
:10019B0020932E900138E004F07006900137E004B4
:1001AB00F0900155E0FEA3E0FFC3900138E09F9073
:1001BB000137E09E4016E4F0A3F090015A04F08062
:1001CB000B900137E4F0A3F090015AF020C02E9071
:1001DB00013AE004F07006900139E004F09001550B
:1001EB00E0FEA3E0FFC390013AE09F900139E09E4F
:1001FB004016E4F0A3F090015B04F0800B90013902
:10020B00E4F0A3F090015BF020B32E90013CE004EE
:10021B00F0700690013BE004F0900155E0FEA3E086
:10022B00FFC390013CE09F90013BE09E4016E4F041
:10023B00A3F090015C04F0800B90013BE4F0A3F081
:10024B0090015CF020C82E90013EE004F070069007
:10025B00013DE004F0900155E0FEA3E0FFC39001E7
:10026B003EE09F90013DE09E4016E4F0A3F090012C
:10027B005D04F0800B90013DE4F0A3F090015DF084
:10028B0020B52E900140E004F0700690013FE00491
:10029B00F0900155E0FEA3E0FFC3900140E09F907A
:1002AB00013FE09E4016E4F0A3F090015E04F08065
:1002BB000B90013FE4F0A3F090015EF020B72E907D
:1002CB000142E004F07006900141E004F09001550A
:1002DB00E0FEA3E0FFC3900142E09F900141E09E4E
:1002EB004016E4F0A3F090015F04F0800B90014105
:1002FB00E4F0A3F090015FF020C22E900144E004E3
:10030B00F07006900143E004F0900155E0FEA3E08D
:10031B00FFC3900144E09F900143E09E4016E4F040
:10032B00A3F090016004F0800B900143E4F0A3F084
:10033B00900160F020C42E900146E004F07006900E
:10034B000145E004F0900155E0FEA3E0FFC39001EE
:10035B0046E09F900145E09E4016E4F0A3F090012B
:10036B006104F0800B900145E4F0A3F0900161F083
:10037B0020A52E900148E004F07006900147E004A0
:10038B00F0900155E0FEA3E0FFC3900148E09F9081
:10039B000147E09E4016E4F0A3F090016204F08068
:1003AB000B900147E4F0A3F0900162F020A72E9090
:1003BB00014AE004F07006900149E004F090015509
:1003CB00E0FEA3E0FFC390014AE09F900149E09E4D
:1003DB004016E4F0A3F090016304F0800B90014908
:1003EB00E4F0A3F0900163F020C62E90014CE004E2
:1003FB00F0700690014BE004F0900155E0FEA3E095
:10040B00FFC390014CE09F90014BE09E4016E4F03F
:10041B00A3F090016404F0800B90014BE4F0A3F087
:10042B00900164F090016FE0640160030204BC90E2
:10043B00014EE004F0700690014DE004F090016570
:10044B00E0FEA3E0FFD390014EE09F90014DE09EB4
:10045B00500A90016DE0FD7F011214BB900167E023
:10046B00FEA3E0FF900165E0FCA3E0FD2FFFEC3E57
:10047B00FE90014DE0FAA3E0FBC39FEA9E500DEB0B
:10048B009DEA9C4007E4FD7F011214BB900167E0DD
:10049B00FEA3E0FF900166E02FFF900165E03EFEBA
:1004AB00C390014EE09F90014DE09E4004E4F0A309
:1004BB00F0900170E064016003020549900150E087
:1004CB0004F0700690014FE004F0900169E0FEA388
:1004DB00E0FFD3900150E09F90014FE09E500A90B7
:1004EB00016EE0FD7F021214BB90016BE0FEA3E0F6
:1004FB00FF900169E0FCA3E0FD2FFFEC3EFE9001B5
:10050B004FE0FAA3E0FBC39FEA9E500DEB9DEA9CE4
:10051B004007E4FD7F021214BB90016BE0FEA3E0E9
:10052B00FF90016AE02FFF900169E03EFEC390014E
:0E053B0050E09F90014FE09E4004E4F0A3F0DA
:10054900D007D006D005D004D003D002D001D00006
:0B055900D0D0D082D083D0F0D0E032B0
:10000E00900000E064017065F07B017A00798190C8
:10001E000105E024FEFD1212A1AD07AC069001050C
:10002E00E0FB247FF582E43400F583E0FE74802B40
:10003E00F582E43400F583E0FBEBFFE4900105F07C
:10004E00EDB50729ECB50625900081E0B4E11EA3BD
:10005E00E024FC600F24FE600E24F6600D240D706B
:0D006E000C021032020E78021305120D363E
:01007B002262
:101032009001747403F0900085A3E025E0900173A1
:10104200F0900083E0FEA3E0FDEDFF900176EEF06C
:10105200A3EFF090000174E1F0A37403F090017328
:10106200E0900003F0900173E0F9C313FD90017763
:10107200E02DFD900176E03400FCC3EF9DEE9C5024
:1010820040E4900172F0900171F0900171E0FD90E6
:101092000174E0FC04F074012CF582E43400F58361
:1010A200EDF0900172E0FD900174E0FC04F0740137
:1010B2002CF582E43400F583EDF00FBF00010E80C1
:0A10C200A4E92403FD7F03020F6B75
:100E78009001747403F0900085A3E025E09001735D
:100E8800F0900083E0FEA3E0FDEDFF900176EEF028
:100E9800A3EFF090000174E1F0A37404F0900173E3
:100EA800E0900003F0900107EEF0A3EFF0900173DB
:100EB800E0C313FF900177E02FFF900176E0340044
:100EC800FE900107E0FCA3E0FDC39FEC9E400302F7
:100ED8000F5FE4900172F0900171F0EC7038ED143E
:100EE80060171460212402702D1208C9900152E085
:100EF800900171F09001518018900154E0900171B7
:100F0800F0900153800B900179E0900171F090010D
:100F180078E0900172F0900171E0FF900174E0FEBA
:100F280004F074012EF582E43400F583EFF09001AB
:100F380072E0FF900174E0FE04F074012EF582E483
:100F48003400F583EFF0900108E004F0700690019A
:100F580007E004F0020EB5900173E02403FD7F045E
:030F6800020F6B0A
:10130500900084E024FD600A24FE601E24FE603502
:101315008045900086E0FF90016FF0BF01069001C7
:101325006DE08001E4FD7F018016900086E0FF906E
:101335000170F0BF010690016EE08001E4FD7F02BF
:101345001214BB8012900086E075F064A4FF900132
:0E13550055E5F0F0A3EFF07D087F06020F6B68
:100D36009001757407F0900087E0900173F09000C1
:100D460083E0FEA3E0FDEDFF900176EEF0A3EFF069
:100D5600900107EEF0A3EFF0900173E0C313FF904C
:100D66000177E02FFF900176E03400FE900107E066
:100D7600FCA3E0FDC39FEC9E4003020E719001753B
:100D8600E02481F582E43400F583E0900171F0906F
:100D96000175E02482F582E43400F583E090017267
:100DA600F0EC6003020E59ED1460331460501460C9
:100DB60070147003020E4724046003020E5990015A
:100DC60071E090016DF0900172E0FF90016FF0BF4D
:100DD600010690016DE08001E4FD7F01803E9001F7
:100DE60071E075F064A4FF900167E5F0F0A3EFF001
:100DF600900172E075F064A4FF900165804F900148
:100E060071E090016EF0900172E0FF900170F0BF0A
:100E1600010690016EE08001E4FD7F021214BB80A2
:100E260032900171E075F064A4FF90016BE5F0F07B
:100E3600A3EFF0900172E075F064A4FF9001698061
:100E46000C900172E075F064A4FF900155E5F0F096
:100E5600A3EFF0900175E02402F0900108E004F0A1
:100E66007006900107E004F0020D5E7D087F100217
:020E76000F6B00
:050F6B00900109EDF00A
:100F7000EF24FC600F24FE604F24F66064240D60B3
:100F80000302101F7B017A007901900109E0FD1234
:100F900012A190010AEEF0A3EFF090010AE0FEA387
:100FA000E0FD900109E0FC2402F582E43400F583C1
:100FB000EDF0EEFF74012CF582E43400F583EFF0E0
:100FC000900109E02402805378017C007D017B01BF
:100FD0007A0079817E007F08120C72900109E0800E
:100FE0003A78017C007D017B017A0079817E007F67
:100FF00006120C727B017A0079017D061212A19013
:10100000010AEEF0A3EFF090010AE0FEA3E09000E9
:1010100008F0EE900007F0900109E0900101F0D295
:10102000847F027E001215694384027F017E0002E4
:02103000156940
:0512A10090010CEDF0CE
:1012A60074FFA3F0A3F0120C98FF90010DE0F0A3D9
:1012B600E06FF0E4FD90010DE0FEA3E0FF30E019E1
:1012C600EEC313FEEF13FFEE64A0FEEF6401FF9082
:1012D600010DEEF0A3EFF0800B90010DE0C313F0CB
:1012E600A3E013F00DEDB408CC740129F9E43AFA41
:0E12F60090010CE014F070AEA3E0FEA3E0FF48
:0113040022C6
:1010D80002147DE493A3F8E493A34003F68001F29D
:1010E80008DFF48029E493A3F85407240CC8C33319
:1010F800C4540F4420C8834004F456800146F6DFE8
:10110800E4800B0102040810204080901363E47E01
:10111800019360BCA3FF543F30E509541FFEE493DC
:10112800A360010ECF54C025E060A840B8E493A3A3
:10113800FAE493A3F8E493A3C8C582C8CAC583CACE
:10114800F0A3C8C582C8CAC583CADFE9DEE780BE86
:0113BC000030
:100BA200E709F608DFFA8046E709F208DFFA803E35
:100BB20088828C83E709F0A3DFFA8032E309F60822
:100BC200DFFA8078E309F208DFFA807088828C838A
:100BD200E309F0A3DFFA806489828A83E0A3F6083E
:100BE200DFFA805889828A83E0A3F208DFFA804C18
:100BF20080D280FA80C680D4806980F280338010EF
:100C020080A680EA809A80A880DA80E280CA803357
:100C120089828A83ECFAE493A3C8C582C8CCC583CF
:100C2200CCF0A3C8C582C8CCC583CCDFE9DEE7809F
:100C32000D89828A83E493A3F608DFF9ECFAA9F01E
:100C4200EDFB2289828A83ECFAE0A3C8C582C8CC74
:100C5200C583CCF0A3C8C582C8CCC583CCDFEADE8D
:100C6200E880DB89828A83E493A3F208DFF980CCEF
:100C720088F0EF60010E4E60C388F0ED2402B404E8
:100C82000050B9F582EB2402B4040050AF2323458F
:060C92008223900BF273B7
:100C9800BB010689828A83E0225002E722BBFE025A
:090CA800E32289828A83E493228D
:10056400E508240AF582E43401F583E005082290C5
:10057400010730070390010AE475F001120CF00240
:100584000C982000E97F2ED2008018EF540F24909D
:10059400D43440D4FF30040BEF24BFB41A0050030A
:1005A4002461FFE50960021509050CE50C700205DC
:1005B4000B30070E900107E475F001120CF0EF0206
:1005C4000CDE02007C7403D2078003E4C207F50842
:1005D400900107120D07E4F509F50BF50CE5096028
:1005E400077F201205A780F5750AFFC201C200C269
:1005F40002C203C205C206C208120573FF700D30A1
:1006040007057F001205B8AF0CAE0B22B4255FC2FC
:10061400D5C204120573FF24D0B40A00501A75F031
:100624000A780930D50508B6FF0106C6A426F620C7
:10063400D5047002D20380D924CFB41A00EF500439
:10064400C2E5D2040207B9D20180C6D20080C0D26A
:100654000280BCD2D580BAD20580B47F201205A70F
:100664002002077401B5090040F1120564FF120568
:10067400A70205E1D208D2068095120564FB120593
:1006840064FA120564F94A4B7006798A7A087BFF8A
:1006940020022EE509602A7E008E82758300120CEA
:1006A400B160060EEE650A70F0C2D5EBC0E0EAC098
:1006B400E0E9C0E0EE120800D0E0F9D0E0FAD0E0C2
:1006C400FB120C98FF60AAEBC0E0EAC0E0E9C0E0CE
:1006D4001205A7D0E02401F9D0E03400FAD0E0FB01
:1006E400E50A0460DCD50AD980877BFF7A0779FCA8
:1006F400D202809C791080027908C206C208800860
:10070400D2D5790A8004790AC2D5E50A047002F5C3
:100714000AE4FAFDFEFF120564FC7B0820011312B3
:100724000564FD7B1030000A120564FE120564FFA7
:100734007B20EC3382D592D55013C3E43000069F5E
:10074400FFE49EFEE42001039DFDE49CFCE4CBF861
:10075400C201EC700CCFCECDCCE824F8F870F38055
:1007640017C3EF33FFEE33FEED33FDEC33FCEB3315
:10077400FB994002FB0FD8E9EB300105F8D0E0C447
:1007840048B201C0E00AEC4D4E4F78207B0070C2A5
:10079400EAB50A0040BCC0E0120802D0F0D0E02064
:1007A4000104C4C0E0C4B201C0F0120590D0F0D579
:1007B400F0EB0205E1120D10067E5306F858064FC1
:1007C4004C064B4206FC4F070444070449066443A5
:0807D400070A5506EE4606EE89
:1007DC004506EE4708AA5006532D06572E067A2BCF
:1007EC00065B2306782008932A061348000006723D
:1007FC003F3F3F00790AA2D5200314300509B910F8
:10080C00020404B9080104A2D520060250010420F8
:10081C0002689202B509005034C0E07F2030031901
:10082C007F30A20272067205500F120859C202C222
:10083C0006C205C2087F30800F300503E9C0E01204
:10084C0005A7300503D0E0F9D0E0B509CC30051789
:10085C007F30B9100C1205A77F583004077F7880C1
:10086C0003B908031205A73002057F2D0205A77FE7
:10087C00202008F87F2B2006F322920280CF286ECE
:10088C00756C6C2900D2011205643001F8C2017834
:10089C000930D50108F60206132D504349581205AC
:1008AC00642403B405004001E49008A59312059854
:0D08BC00743A120598D2037509040206F87B
:100CB100BB010CE58229F582E5833AF583E02250F8
:100CC10006E92582F8E622BBFE06E92582F8E22242
:0D0CD100E58229F582E5833AF583E493225C
:100CDE00BB010689828A83F0225002F722BBFE01F5
:020CEE00F322EF
:100CF000F8E0FBA3A3E0F925F0F0E582158270028D
:070D00001583E0FA38F02230
:090D0700EBF0A3EAF0A3E9F022ED
:100D1000D083D082F8E4937012740193700DA3A372
:100D200093F8740193F5828883E473740293686086
:060D3000EFA3A3A380DF86
:00000001FF
