:1012AC00D3EF9400EE9400401600000075080B7507
:0F12BC0009BED509FDD508FAEF1F70E41E80E1C9
:0112CB002200
:10000E00D3EF9400EE9400400A000000EF1F70F052
:04001E001E80ED2231
:1013440043BC807F0A7E001212AC53DEFC43DE0CE9
:0A13540053BCDF53A8DF43DE202264
:10126A00E4FDFC53BCF0EF444042BCE5BC30E5FB76
:10127A0053BCDF53BCBFAFBDEFADBEFCEDAE04FF48
:01128A002241
:0D140100E4F5C7F5C5F5C675C380F5C42236
:10130B0075C78075F50C75C5038FC4EEF5C375C62F
:0E131B005A75C6A57F0A7E001212AC0214019C
:1012480075C78075F50C75C5028FC4EEF5C3AF057B
:101258008FC275C65A75C6A57F0A7E001212AC02E7
:0212680014016F
:1012CC0075C78075F50C75C5018FC4EEF5C375C671
:1012DC005A75C6A57F0A7E001212ACAFC202140169
:1012EC00759418E4F593F5927591F975960EF5953C
:0F12FC0075B2C2F5B175B48EF5B3F5CAF5C92256
:1010BA0043BA801212EC12137812139112134412CB
:1010CA0013A812128B1213BE1212071213D1D2AF27
:1010DA0012116C900108E0700F120613120F197F9B
:1010EA000A7E001212AC80EBE490027BF07F14FEC1
:1010FA001212AC120F19120FEF12135E900107E0D1
:0D110A00B401F01211BFE4900107F080E67F
:1012070043BA8090FEB6E0F090FEEDE4F090FEEA7F
:101217007470F090FEED7401F090FEF27404F0A388
:101227007451F090FEF0E4F0A37431F090FEB5E055
:101237004410F090FEFD7480F090FEE0E04401F071
:011247002284
:1013BE00438E805389F0758ACD758CD4C28DD28CB4
:0313CE00D2A9227F
:1013D10053D1FDE4F5D575D4DC43D10843AF2022C8
:1013780053A23F759850438E01438E0475D7E87584
:09138800D6FF438E1075A8102257
:1013A80075841043844043D12075D3E875D2FF4338
:0613B800D18043AF1022BA
:10128B00E4900000F0900081F0900101F0F0A3F0E9
:10129B00A3F0A3F0A3F0C28490010704F0E4A3F041
:0112AB002220
:10139100E4900109F090018AF090020AF0F0A3F0C4
:0713A100A3F0A3F0A3F0226A
:03009300020E2337
:100E2300C0E0C083C082C0D075D000C007E5843065
:100E3300E12A5384FD900101E0601AA3E0FF04F06E
:100E430074012FF582E43400F583E0F58590010108
:100E5300E014F08007900102E4F0C284E58430E0FE
:100E6300335384FE900000E07021900105E0D39499
:100E7300804002E4F0900105E02481F582E434002F
:100E8300F583E585F0900105E004F0900103E4F0BB
:0F0E9300A37405F0D007D0D0D082D083D0E03246
:03002300020EA228
:100EA200C0E0C083C082C0D075D000C0073099278F
:100EB200C29990020AE0601AA3E0FF04F0740A2FBC
:100EC200F582E43401F583E0F59990020AE014F02A
:100ED200800590020BE4F0309832C298900109E04C
:100EE200702190020EE0D394804002E4F090020E52
:100EF200E0248AF582E43401F583E599F090020E4C
:100F0200E004F090020CE4F0A37405F0D007D0D016
:070F1200D082D083D0E03251
:03000B00020026CA
:10002600C0E0C083C082C0D0900103E07002A3E0AC
:100036006024900104E024FFF0900103E034FFF017
:10004600E07002A3E0700F900105E0D39400400633
:100056009000007401F090020CE07002A3E06024AE
:1000660090020DE024FFF090020CE034FFF0E07007
:1000760002A3E0700F90020EE0D3940040069001B8
:0D008600097401F0D0D0D082D083D0E032D8
:10116C007F157E001212CCEFF4704590025504F0FE
:10117C00A37428F0A37401F0A37403F0A37401F01A
:10118C00A37428F0A37401F0A3F0A3740AF0A37461
:10119C0014F0A37401F0A304F0A3740FF0A374195A
:1011AC00F0A37401F0A37432F0A37401F01206F3EF
:0311BC000207CD5A
:1006F300E4FFFE12130B900255E0FDE4FFFE12121D
:1007030048900256E0FD7F017E0012124890025786
:10071300E0FD7F027E00121248900258E0FD7F0345
:100723007E00121248900259E0FD7F047E001212EF
:100733004890025AE0FD7F057E0012124890025B4A
:10074300E0FD7F067E0012124890025CE0FD7F0709
:100753007E0012124890025DE0FD7F087E001212B7
:100763004890025EE0FD7F097E0012124890025F0E
:10077300E0FD7F0A7E00121248900260E0FD7F0BCD
:100783007E00121248900261E0FD7F0C7E0012127F
:1007930048900262E0FD7F0D7E00121248900263D2
:1007A300E0FD7F0E7E00121248900264E0FD7F0F91
:1007B3007E00121248900265E0FD7F107E00121247
:0A07C300487D587F157E00021248A1
:1007CD00E4FFFE1212CC900255EFF07F017E001275
:1007DD0012CC900256EFF01213297F027E001212F6
:1007ED00CC900257EFF01214197F037E001212CC39
:1007FD00900258EFF01213E17F047E001212CC909C
:10080D000259EFF07F057E001212CC90025AEFF0E4
:10081D007F067E001212CC90025BEFF07F077E0008
:10082D001212CC90025CEFF07F087E001212CC9079
:10083D00025DEFF07F097E001212CC90025EEFF0A8
:10084D007F0A7E001212CC90025FEFF07F0B7E00CC
:10085D001212CC900260EFF07F0C7E001212CC9041
:10086D000261EFF07F0D7E001212CC900262EFF06C
:10087D007F0E7E001212CC900263EFF07F0F7E0090
:10088D001212CC900264EFF07F107E001212CC9009
:05089D000265EFF022EE
:1003FA00900245EBF0A3EAF0A3E9F0A3ECF0A3ED39
:01040A00F001
:10040B00E4A3F0900249E024FFFF900248E034FFA0
:10041B00FE90024AE0C39FE49E4003020508E4A35A
:10042B00F090024AE0FFC3900249E09FFF90024820
:10043B00E09400CF24FFCF34FFFE90024BE0C39F2C
:10044B00E49E40030204FFE0FD2401FFE433FEEFD2
:10045B0025E0FFEE33FE900245E0FBA3E0FAA3E0BC
:10046B00F98F828E83120214FFAEF075F002EDA4A9
:10047B00F58285F083120214D39FE5F09E406C90B9
:10048B000245A3A390024BE0FF75F002A4F5828511
:10049B00F083120214FD90024CE5F0F0A3EDF0EFA7
:1004AB002401FFE433FEEF25E0FFEE338F82F5836B
:1004BB00120214FFAEF090024BE075F002A4F5822D
:1004CB0085F083EE8FF012024C90024CE0FCA3E01F
:1004DB00FD90024BE02401FFE433FEEF25E0FFEE3D
:1004EB00338F82F583EC8DF012024C90024BE004BB
:0D04FB00F002042C90024AE004F002040E0E
:0105080022D0
:050A2A0090020FEFF047
:100A2F00E4900211F0A3F0900210F090020FE0FF9B
:100A3F0012126A900210E025E02415F582E43402C8
:100A4F00F583EEF0A3EFF0900210E004F0E0C39412
:100A5F001840D87B017A0279157D187C001203FAB1
:100A6F007F06EF25E02415F582E43402F583E0FCE0
:100A7F00A3E0FD900212E02DF0900211E03CF00F88
:100A8F00EFB412DE900211E0FEA3E0FF7C007D0CBC
:100A9F001201BF900211EEF0A3EFF0C39484EE9415
:100AAF00044023E0247CFF900211E034FBFE7C0025
:100ABF007D641201AD7C027D6F1201BF900213EEB7
:100ACF00F0A3EFF08007E4900213F0A3F09002136D
:050ADF00E0FEA3E0FFB2
:010AE40022EF
:0A141900EFB40103C2A322D2A32204
:1013E100EF75F0B8A4FF90FEF9E5F0F0A3EFF0225D
:10132900900255E0B40111A3E0FF900254E0C39F7D
:0B1339005003C2C122D2C122D2C12247
:10135E0090027BE0B40112E4FF120A2A900254EFCD
:0A136E00F0121329E490027BF02234
:0A140E004202850000420287000040
:03009B00021056FA
:06105600C0E0C083C0826F
:10105C0090027BE07026900286E004F0700690020D
:10106C0085E004F0900285E07004A3E064C8700C85
:10107C0090027B04F0900285E4F0A3F0900107E06D
:10108C007025900288E004F07006900287E004F06E
:10109C00900287E07004A3E06464700B900287F008
:0710AC00A3F090010704F01E
:0710B300D082D083D0E032AF
:100F1900900000E064017065F07B017A00798190AE
:100F29000105E024FEFD120F8BAD07AC069001050B
:100F3900E0FB247FF582E43400F583E0FE74802B26
:100F4900F582E43400F583E0FBEBFFE4900105F062
:100F5900EDB50729ECB50625900081E0B4EB1EA399
:100F6900E024FC600F24FE600E24F6600D240D7051
:0D0F79000C020CFD0208A2020AE5120003A2
:010F86002248
:100FEF00900109E06401705EF07B017A01798A90CB
:100FFF00020EE024FEFD120F8BAD07AC0690020E21
:10100F00E0FB2489F582E43401F583E0FE74882B3C
:10101F00F582E43401F583E0FBEBFFE490020EF080
:10102F00EDB50722ECB5061E90018AE0B4DC17A3DC
:10103F00E024FC600B24FE600A240370090202798D
:06104F00020509120C5419
:011055002278
:100CFD009002817403F0900085A3E025E0900280BE
:100D0D00F0900083E0FEA3E0FDEDFF900283EEF096
:100D1D00A3EFF090000174EBF0A37403F090028048
:100D2D00E0900003F0900280E0F9C313FD9002847F
:100D3D00E02DFD900283E03400FCC3EF9DEE9C504E
:100D4D0040E490027FF090027EF090027EE0FD90F4
:100D5D000281E0FC04F074012CF582E43400F5838B
:100D6D00EDF090027FE0FD900281E0FC04F0740153
:100D7D002CF582E43400F583EDF00FBF00010E80F9
:0A0D8D00A4E92403FD7F03020967B7
:100279009002817403F090018EA3E025E090028042
:10028900F090018CE0FEA3E0FDEDFF900283EEF01B
:10029900A3EFF090010A74DCF0A37403F0900280DC
:1002A900E090010CF0AB07AA06900280E0F9C313B5
:1002B900FF900284E02FFF900283E03400FEC3EB3D
:1002C9009FEA9E40030203F1E490027FF090027ED0
:1002D900F0EA60030203B9EBB4090040030203B971
:1002E9009002F0F828287302030B02031902032471
:1002F90002032E02033B0203450203720203A10219
:1003090003AC900256E090027EF09002550203A9D8
:10031900E490027EF09002570203A9E490027EF075
:10032900900258807B90025AE090027EF090025928
:10033900806EE490027EF090025B806490025EE041
:1003490025E0FF90025DE0FEC41354074FFF9002C1
:100359005FE0C433333354804F90027EF0EE333381
:100369003354F8FF90025C802B900262E025E0FF95
:10037900900261E0FEC41354074FFF900263E0C48A
:1003890033333354804F90027EF0EE33333354F8D5
:10039900FF900260E04F8014E490027EF0900264C6
:1003A900E08009E490027EF0900265E090027FF01F
:1003B90090027EE0FF900281E0FE04F0740A2EF5BF
:1003C90082E43401F583EFF090027FE0FF9002812F
:1003D900E0FE04F0740A2EF582E43401F583EFF0AF
:1003E9000BBB00010A0202B2E92403FD7F03020BE1
:0103F9009E65
:1008A200900084E090024FF0900085E090024EF0BC
:1008B2005403900266F090024EE0540C1313543F1E
:1008C200900267F090024EE05430C4540F900268D8
:1008D200F090024EE054C0C413135403900269F026
:1008E20090024FE0540390026AF090024FE0540CE1
:1008F2001313543F90026BF0900265E0B4010F9025
:10090200024FE05430C4540F90026CF08006900203
:100912006C7403F0900266E06401602AA3E0640153
:100922006024A3E06401601EA3E064016018A3E0F8
:1009320064016012A3E06401600CA3E0640160063C
:10094200900250E07004C2C78002D2C7900088E0D3
:10095200900252F0900089E0900251F090008BE0FA
:05096200900253F02299
:100509009002817403F090018EA3E025E0900280AF
:10051900F090018CE0FEA3E0FDEDFF900283EEF088
:10052900A3EFF090010A74DCF0A37404F090028048
:10053900E090010CF090020FEEF0A3EFF090028032
:10054900E0C313FF900284E02FFF900283E03400A0
:10055900FE90020FE0FCA3E0FDC39FEC9E40030266
:100569000607E490027FF090027EF0EC704FED14E4
:10057900601A14602414602E1460352404703E90AF
:10058900024FE090027EF090024E802C1213F1E4AB
:1005990090027EF0900250801F900252E090027EFD
:1005A900F09002518012E490027EF090025380088C
:1005B900E490027EF0900254E090027FF090027E77
:1005C900E0FF900281E0FE04F0740A2EF582E43423
:1005D90001F583EFF090027FE0FF900281E0FE04D5
:1005E900F0740A2EF582E43401F583EFF0900210DD
:1005F900E004F0700690020FE004F0020546900254
:0A06090080E02403FD7F04020B9E35
:100AE500900084E024FD60121460211460271460D6
:100AF5005D147003020B8C020B9790018EE090023F
:100B05005AF090018FE0900259020B9390018FE00B
:100B150090025B807990018FE0FE540790025CF0B3
:100B250090018EE0FC5401C43354E0FDEE13131321
:100B3500541F4D90025DF0EC547FC313A3F0900158
:100B45008EE0C4131313540190025FF080449001AA
:100B55008FE0FE5407900260F090018EE0FC540196
:100B6500C43354E0FDEE131313541F4D900261F08E
:100B7500EC547FC313A3F090018EE0FFC41313134D
:100B85005401900263800790018FE0900264F01297
:090B950006F37D087F06020B9EA9
:100C540090018DE0B409004003020CFC900C67F88D
:100C6400282873020C82020C93020CA1020CAF021E
:100C74000CBB020CC6020CD2020CDE020CEA900180
:100C84008EE0900256F090018FE0900255805E90C5
:100C9400018FE0FF900257F0121419805190018FD8
:100CA400E0FF900258F01213E1804390018EE0FDC2
:100CB400A3E0FB7F03802C90018FE0FBE4FD7F0425
:100CC400802190018EE0FDA3E0FB7F05801590015B
:100CD4008EE0FDA3E0FB7F06800990018FE0FBE43A
:100CE400FD7F0702111790018FE0900265F07D08E7
:090CF4007F06120B9E1206F3228A
:070003009001087401F022D6
:0509670090020FEDF00D
:10096C00EF24FC600F24FE604F24F66064240D60BD
:10097C0003020A177B017A00790190020FE0FD1245
:10098C000F8B900210EEF0A3EFF0900210E0FEA39C
:10099C00E0FD90020FE0FC2402F582E43400F583C4
:1009AC00EDF0EEFF74012CF582E43400F583EFF0EA
:1009BC0090020FE02402804F78017C007D017B01C6
:1009CC007A0079817E007F0812016E90020FE08020
:1009DC003678017C007D017B017A0079817E007F75
:1009EC000612016E7A007901120F87900210EEF058
:1009FC00A3EFF0900210E0FEA3E0900008F0EE9060
:100A0C000007F090020FE0900101F0D2847F027E8B
:0E0A1C00001212AC4384027F017E000212AC75
:050B9E00900211EDF0D2
:100BA300EF24FC600F24FE604F24F66064240D6084
:100BB30003020C4B7B017A01790A900211E0FD12CA
:100BC3000F8B900212EEF0A3EFF0900212E0FCA361
:100BD300E0FDECFF900211E0FE240BF582E434010A
:100BE300F583EFF0740A2EF582E43401F583EDF01A
:100BF300900211E02402804C780A7C017D017B0184
:100C03007A01798A7E007F0812016E900211E080DA
:100C130033780A7C017D017B017A01798A7E007F2A
:100C23000612016E7A01790A120F87900212EEF012
:100C3300A3EFF0900212E0FEA3E0900110F0EEF0BB
:100C4300900211E090020AF0D2997F017E00021215
:010C5300ACF4
:040F87007B017D0667
:050F8B00900222EDF0D0
:100F900074FFA3F0A3F0120194FF900223E0F0A3EA
:100FA000E06FF0E4FD900223E0FEA3E0FF30E019E3
:100FB000EEC313FEEF13FFEE64A0FEEF6401FF909B
:100FC0000223EEF0A3EFF0800B900223E0C313F0B6
:100FD000A3E013F00DEDB408CC740129F9E43AFA5A
:0E0FE000900222E014F070AEA3E0FEA3E0FF4A
:010FEE0022E0
:1013F100209706E4900250F0229002507401F022EE
:1006130090020F74EBF0A37410F0E4A3F0A3F0A323
:10062300F0A37405F0A3740AF090025AE090021646
:10063300F0900259E0900217F0E4A3F090025BE01F
:10064300900219F090025EE025E0FF90025DE0FE6B
:10065300C41354074FFF90025FE0C4333333548015
:100663004F90021AF0EE33333354F8FF90025CE0FC
:100673004F90021BF0900262E025E0FF900261E0E0
:10068300FEC41354074FFF900263E0C43333335463
:10069300804F90021CF0EE33333354F8FF90026026
:1006A300E04F90021DF0E4A3F0900264E090021F7B
:1006B300F07B017A02790F7D11120F8BAC06EC905F
:1006C3000220F0A3EFF078017C007D017A02790F1C
:1006D3007E007F1312016E9001017413F0D2847FA8
:1006E300027E001212AC4384027F017E000212AC30
:1011170090020F74EBF0A37406F0E4A3F0A3EFF0D2
:10112700A3EDF0A3EBF07B017A02790F7D06120F96
:101137008BAC06EC900215F0A3EFF078017C007DF4
:10114700017A02790F7E007F0812016E9001017407
:1011570008F0D2847F027E001212AC4384027F0122
:051167007E000212AC45
:1011BF0090020F74EBF0A37404F0E4A3F0A3F0A378
:1011CF00F0A37404F0A314F0A374E7F078017C008B
:1011DF007D017B017A02790F7E007F0812016E90EC
:1011EF0001017408F0D2847F027E001212AC438496
:0811FF00027F017E000212AC28
:03000000020D9757
:0C0D9700787FE4F6D8FD758109020DDEBE
:10009E00E709F608DFFA8046E709F208DFFA803E44
:1000AE0088828C83E709F0A3DFFA8032E309F60831
:1000BE00DFFA8078E309F208DFFA807088828C8399
:1000CE00E309F0A3DFFA806489828A83E0A3F6084D
:1000DE00DFFA805889828A83E0A3F208DFFA804C27
:1000EE0080D280FA80C680D4806980F280338010FE
:1000FE0080A680EA809A80A880DA80E280CA803367
:10010E0089828A83ECFAE493A3C8C582C8CCC583DE
:10011E00CCF0A3C8C582C8CCC583CCDFE9DEE780AE
:10012E000D89828A83E493A3F608DFF9ECFAA9F02D
:10013E00EDFB2289828A83ECFAE0A3C8C582C8CC83
:10014E00C583CCF0A3C8C582C8CCC583CCDFEADE9C
:10015E00E880DB89828A83E493A3F208DFF980CCFE
:10016E0088F0EF60010E4E60C388F0ED2402B404F7
:10017E000050B9F582EB2402B4040050AF2323459E
:06018E0082239000EE73D5
:10019400BB010689828A83E0225002E722BBFE0269
:0901A400E32289828A83E493229C
:1001AD00EF8DF0A4A8F0CF8CF0A428CE8DF0A42E66
:0201BD00FE2220
:1001BF00BC000BBE0029EF8DF084FFADF022E4CC24
:1001CF00F875F008EF2FFFEE33FEEC33FCEE9DECED
:1001DF00984005FCEE9DFE0FD5F0E9E4CEFD22ED33
:1001EF00F8F5F0EE8420D21CFEADF075F008EF2F7D
:1001FF00FFED33FD4007985006D5F0F222C398FD6E
:05020F000FD5F0EA220A
:10021400BB0110E58229F582E5833AF583E0F5F028
:10022400A3E0225009E92582F886F008E622BBFE05
:100234000AE92582F8E2F5F008E222E5832AF5834B
:08024400E993F5F0A3E9932210
:10024C00F8BB0111E58229F582E5833AF583E8F0E4
:10025C00E5F0A3F0225009E92582C8F608A6F022A1
:0D026C00BBFE09E92582C8F2E5F008F22288
:100DA3000210BAE493A3F8E493A34003F68001F29C
:100DB30008DFF48029E493A3F85407240CC8C33351
:100DC300C4540F4420C8834004F456800146F6DF20
:100DD300E4800B010204081020408090140EE47E8E
:100DE300019360BCA3FF543F30E509541FFEE49315
:100DF300A360010ECF54C025E060A840B8E493A3DC
:100E0300FAE493A3F8E493A3C8C582C8CAC583CA06
:100E1300F0A3C8C582C8CAC583CADFE9DEE780BEBE
:0114180000D3
:00000001FF
