:10148400D3EF9400EE9400401600000075080B752D
:0F14940009BED509FDD508FAEF1F70E41E80E1EF
:0114A3002226
:10000E00D3EF9400EE9400400A000000EF1F70F052
:04001E001E80ED2231
:1015010043BC807F0A7E0012148453DEFC43DE0C50
:0A15110053BCDF53A8DF43DE2022A5
:10146300E4FDFC53BCF0EF444042BCE5BC30E5FB7B
:1014730053BCDF53BCBFAFBDEFADBEFCEDAE04FF4D
:011483002246
:0D15A400E4F5C7F5C5F5C675C380F5C42292
:1014E30075C78075F50C75C5038FC4EEF5C375C656
:0E14F3005A75C6A57F0A7E001214840215A445
:1014410075C78075F50C75C5028FC4EEF5C3AF0580
:101451008FC275C65A75C6A57F0A7E001214840212
:0214610015A4D0
:1014A40075C78075F50C75C5018FC4EEF5C375C697
:1014B4005A75C6A57F0A7E00121484AFC20215A411
:1014C400759418E4F593F5927591F975960EF59562
:0F14D40075B2C2F5B175B48EF5B3F5CAF5C9227C
:1011A80043BA801214C412151B12153412150112F9
:1011B800154B12141E121561121373121574D2AF47
:1011C800120EF3900108E0700F120B801210647F6A
:1011D800327E0012148480EBE4900214F0900346EF
:1011E80004F0E4A3F0A3F07F14FE12148412106438
:1011F8001210D2120F70900107E0B401F012132AF6
:07120800E4900107F080E60D
:1013730043BA8090FEB6E0F090FEEDE4F090FEEA12
:101383007470F090FEED7401F090FEF27404F0A31B
:101393007451F090FEF0E4F0A37431F090FEB5E0E8
:1013A3004410F090FEFD7480F090FEE0E04401F004
:0113B3002217
:10156100438E805389F0758ACD758CD4C28DD28C0F
:03157100D2A922DA
:1015740053D1FDE4F5D575D4DC43D10843AF202223
:10151B0053A23F759850438E01438E0475D7E875DF
:09152B00D6FF438E1075A81022B2
:10154B0075841043844043D12075D3E875D2FF4393
:06155B00D18043AF102215
:10141E00E4900000F0900081F0900101F0F0A3F054
:10142E00A3F0A3F0A3F0C28490010704F0E4A3F0AC
:03143E00A3F022F6
:10153400E490010AF090018BF090020BF0F0A3F01C
:07154400A3F0A3F0A3F022C5
:03009300020E74E6
:100E7400C0E0C083C082C0D075D000C007E5843014
:100E8400E12A5384FD900101E0601AA3E0FF04F01D
:100E940074012FF582E43400F583E0F585900101B7
:100EA400E014F08007900102E4F0C284E58430E0AD
:100EB400335384FE900000E07021900105E0D39448
:100EC400804002E4F0900105E02481F582E43400DE
:100ED400F583E585F0900105E004F0900103E4F06A
:0F0EE400A37405F0D007D0D0D082D083D0E032F5
:03002300020FEDDC
:100FED00C0E0C083C082C0D075D000C00730992743
:100FFD00C29990020BE0601AA3E0FF04F0740B2F6E
:10100D00F582E43401F583E0F59990020BE014F0DC
:10101D00800590020CE4F0309832C29890010AE0FD
:10102D00702190020FE0D394804002E4F090020F03
:10103D00E0248BF582E43401F583E599F090020FFD
:10104D00E004F090020DE4F0A37405F0D007D0D0C9
:07105D00D082D083D0E03205
:03000B00020026CA
:10002600C0E0C083C082C0D0900103E07002A3E0AC
:100036006024900104E024FFF0900103E034FFF017
:10004600E07002A3E0700F900105E0D39400400633
:100056009000007401F090020DE07002A3E06024AD
:1000660090020EE024FFF090020DE034FFF0E07005
:1000760002A3E0700F90020FE0D3940040069001B7
:0D0086000A7401F0D0D0D082D083D0E032D7
:100EF3007F157E001214A4EFF4706F90031D04F0AD
:100F0300900321F0A37403F090032E7401F0900377
:100F130026F090032F740AF0900327F090033074A7
:100F230014F0900328F09003317401F0900329F03A
:100F330090033204F090032AF0900333740FF0907F
:100F4300032BF09003347419F090032CF0900335C5
:100F53007401F090032DF09003367432F090031A6D
:0D0F63007450F0A3F0A3F01209630206FF22
:10096300E4FFFE1214E390031DE0FDE4FFFE121406
:1009730041900321E0FD7F017E0012144190032288
:10098300E0FD7F027E00121441900326E0FD7F0309
:100993007E00121441900327E0FD7F047E001214B1
:1009A30041900328E0FD7F057E0012144190032946
:1009B300E0FD7F067E0012144190032AE0FD7F07CD
:1009C3007E0012144190032BE0FD7F087E00121479
:1009D3004190032CE0FD7F097E0012144190032D0A
:1009E300E0FD7F0A7E00121441900336E0FD7F0B89
:1009F3007E0012144190031AE0FD7F0C7E00121456
:100A03004190031BE0FD7F0D7E0012144190031CF7
:100A1300E0FD7F0E7E001214417D587F157E00029B
:020A230014417C
:1006FF00E4FFFE1214A490031DEFF01213EA7F0122
:10070F007E001214A4900321EFF01215B17F027E28
:10071F00001214A4900322EFF01215847F037E00C1
:10072F001214A490032EEFF0900326F07F047E00A6
:10073F001214A490032FEFF0900327F07F057E0093
:10074F001214A4900330EFF0900328F07F067E0080
:10075F001214A4900331EFF0900329F07F077E006D
:10076F001214A4900332EFF090032AF07F087E005A
:10077F001214A4900333EFF090032BF07F097E0047
:10078F001214A4900334EFF090032CF07F0A7E0034
:10079F001214A4900335EFF090032DF07F0B7E0021
:1007AF001214A4900336EFF07F0C7E001214A49065
:1007BF00031AEFF07F0D7E001214A490031BEFF0CD
:0D07CF007F0E7E001214A490031CEFF02298
:1005F40060FC021703D503FA04200446046D049535
:1006040004BE04E70510053A0565059005BB05E73A
:100614000613063F066C069906C606F30720074D27
:10062400077A07A707D40800082D0859088508B1D8
:1006340008DC09070931095B098409AD09D609FDFC
:100644000A240A4B0A710A960ABB0ADE0B020B241F
:100654000B460B670B870BA70BC60BE40C020C1E97
:100664000C3A0C560C700C8A0CA40CBC0CD40CEC7C
:100674000D020D190D2E0D430D570D6B0D7E0D90B2
:100684000DA20DB40DC50DD50DE50DF50E040E121C
:100694000E200E2E0E3B0E480E550E610E6D0E787A
:1006A4000E830E8D0E970EA10EAB0EB40EBD0EC6AC
:1006B4000ECF0ED70EDF0EE70EEF0EF60EFD0F0473
:1006C4000F0B0F110F170F1D0F230F290F2F0F35AE
:1006D4000F3A0F3F0F440F490F4E0F530F580F5C43
:1006E4000F600F650F690F6D0F710F740F780F7C1A
:0E0ADC0090034DEBF0A3EAF0A3E9F0A3EDF0D8
:100AEA00E4900354F0A3F0900353F0900350E01401
:100AFA00FF900353E0FEC39F507390034DE0FBA3A6
:100B0A00E0FAA3E0F975F002EEA4F58285F083120B
:100B1A000202FF900351E0FCA3E0FDC39FEC95F0B5
:100B2A00402AA3E02401FFE433FEEF25E0FFEE3381
:100B3A00FE8F828E83120202FFC3ED9FEC95F05066
:100B4A000B900353E0FFA3E4F0A3EFF0D39003521A
:100B5A00E0947C900351E0940F4009900354E4F030
:100B6A00A3747DF0900353E004F0020AF590035455
:050B7A00E0FEA3E0FF16
:010B7F002253
:05127400900349EFF0BA
:10127900E490034BF0A3F090034AF0900349E0FF98
:1012890012146390034CE02FF090034BE03EF09072
:10129900034AE004F0E0C3940A40E090034BE0FE07
:1012A900A3E0FF7C007D0A1201AD90034BEEF0A391
:1012B900EFF07B017A02791790034BE0FFA3E090EE
:0C12C9000351CFF0A3EFF07D7E020ADCA1
:0A15B100EFB40103C2A322D2A3226B
:10158400EF75F0B8A4FF90FEF9E5F0F0A3EFF022B8
:1013EA0090031DE064017025A3E0B40104C2C1802A
:1013FA0002D2C190031FE0B40104C2C28002D2C269
:10140A00900320E0B40103C2C322D2C322D2C3D2C2
:04141A00C2D2C12257
:100F7000900214E0640170747F04121274900210E5
:100F8000EFF07F05121274900211EFF07F0612123B
:100F900074900212EFF090031AE0FF900210E0C389
:100FA0009F4007E490031EF0800690031E7401F03A
:100FB00090031BE0FF900211E0C39F4007E4900301
:100FC0001FF0800690031F7401F090031CE0FF9057
:100FD0000212E0C39F4007E4900320F080069003D4
:0D0FE000207401F01213EAE4900214F022D4
:0A06F40042036700004203690000A2
:03009B00020D5AF9
:080D5A00C0E0C083C082C0D0DC
:100D6200900214E07026900368E004F0700690038D
:100D720067E004F0900367E07004A3E06464700C21
:100D820090021404F0900367E4F0A3F0900107E0EE
:100D9200702590036AE004F07006900369E004F0A5
:100DA200900369E07004A3E06464700B900369F03F
:100DB200A3F090010704F0900346E0B4011F9003F2
:100DC20048E004F07006900347E004F0900347E027
:0D0DD200B4010AA3E0B4F405900346E4F078
:090DDF00D0D0D082D083D0E032E4
:10106400900000E064017065F07B017A0079819062
:101074000105E024FEFD121144AD07AC0690010504
:10108400E0FB247FF582E43400F583E0FE74802BDA
:10109400F582E43400F583E0FBEBFFE4900105F016
:1010A400EDB50729ECB50625900081E0B4E11EA357
:1010B400E024FC600F24FE600E24F6600D240D7005
:0D10C4000C020CC002023A0213B412120F0B
:0110D10022FC
:1010D20090010AE064017065F07B017A01798B90DE
:1010E200020FE024FEFD121144AD07AC0690020F80
:1010F200E0FB248AF582E43401F583E0FE74892B57
:10110200F582E43401F583E0FBEBFFE490020FF09B
:10111200EDB50729ECB5062590018BE0B4DC1EA3E2
:10112200E024FC600F24FE600E24F6600D240D7096
:0D1132000C02038C0204D4020C231207DC13
:01113F00228D
:100CC0009003637403F0900085A3E025E090036235
:100CD000F0900083E0FEA3E0FDEDFF900365EEF0F1
:100CE000A3EFF090000174E1F0A37403F0900362AD
:100CF000E0900003F0900362E0F9C313FD900366F7
:100D0000E02DFD900365E03400FCC3EF9DEE9C50A8
:100D100040E4900361F0900360F0900360E0FD9088
:100D20000363E0FC04F074012CF582E43400F583E5
:100D3000EDF0900361E0FD900363E0FC04F07401CA
:100D40002CF582E43400F583EDF00FBF00010E8036
:0A0D5000A4E92403FD7F030208A0BC
:10038C009003637403F090018FA3E025E090036267
:10039C00F090018DE0FEA3E0FDEDFF900365EEF023
:1003AC00A3EFF090010B74DCF0A37403F0900362E4
:1003BC00E090010DF0900362E0F9C313FD90036629
:1003CC00E02DFD900365E03400FCC3EF9DEE9C40F6
:1003DC00030204CBE4900361F0900360F0EE600341
:1003EC00020493EFB40A0040030204939003FFF855
:1003FC0028287302041D02042702043102043B0264
:10040C00044802045502046202046F0204790204D7
:10041C0086E4900360F090031D8067E4900360F025
:10042C00900321805DE4900360F090032280539050
:10043C000326E0900360F09003298046900328E0A7
:10044C00900360F0900327803990032AE0900360BA
:10045C00F090032D802C90032CE0900360F090031F
:10046C002B801FE4900360F0900336801590031BE3
:10047C00E0900360F090031A8008E4900360F09021
:10048C00031CE0900361F0900360E0FD900363E0D7
:10049C00FC04F0740B2CF582E43401F583EDF09040
:1004AC000361E0FD900363E0FC04F0740B2CF58217
:1004BC00E43401F583EDF00FBF00010E0203C1E936
:0804CC002403FD7F03020A2551
:10023A00900084E0900314F0900085E0900313F09E
:10024A00900086E0900316F0900087E0900315F086
:10025A00900313E05403900338F0900313E0540C16
:10026A001313543F900339F0900313E05430C454ED
:10027A000F90033AF0900313E054C0C413135403CD
:10028A0090033BF0900314E0540390033CF0900376
:10029A0014E0540C1313543F90033DF0900314E000
:1002AA005430C4540F90033EF0900315E054039069
:1002BA00033FF0900315E0540C1313543F9003408E
:1002CA00F0900315E05430C4540F900341F09003AA
:1002DA0015E054C0C413135403900342F09003165C
:1002EA00E05403900343F0900316E0540C131354A4
:1002FA003F900344F0900316E05430C4540F900327
:10030A0045F0900338E064016055A3E06401604F52
:10031A00A3E064016049A3E064016043A3E06401CF
:10032A00603DA3E064016037A3E06401603190039B
:10033A0017E0602B90033FE064016023A3E06401AF
:10034A00601DA3E064016017A3E064016011A3E0EB
:10035A006401600BA3E064016005A3E0B40104C278
:10036A00C78002D2C7900088E0900319F0900089F4
:10037A00E0900318F0E4900347F0A3F090034604DA
:02038A00F0225F
:1004D4009003637403F090018FA3E025E09003621E
:1004E400F090018DE0FEA3E0FDEDFF900365EEF0DA
:1004F400A3EFF090010B74DCF0A37404F09003629A
:10050400E090010DF0900349EEF0A3EFF090036248
:10051400E0C313FF900366E02FFF900365E034000F
:10052400FE900349E0FCA3E0FDC39FEC9E40030260
:1005340005E8E4900361F0900360F0EC7065ED145D
:10054400601D14602714603414603E146048240550
:100554007051900314E0900360F0900313803F9077
:100564000316E0900360F090031580321215949006
:100574000346E0900360F09003178022900319E093
:10058400900360F09003188015900211E0900360CE
:10059400F09002108008E4900360F0900212E09062
:1005A4000361F0900360E0FF900363E0FE04F074E5
:1005B4000B2EF582E43401F583EFF0900361E0FF44
:1005C400900363E0FE04F0740B2EF582E43401F52D
:1005D40083EFF090034AE004F07006900349E004CE
:1005E400F0020511900362E02403FD7F04020A2552
:1013B400900084E024FD600A24FE600F24FE601483
:1013C400801D900190E09003298010900190E0909E
:1013D400032D8007900190E0900336F01209637D9D
:0613E400087F06020A2545
:100C230090018EE0B40A004003020CBF900C36F82A
:100C3300282873020C54020C5D020C6B020C79021F
:100C43000CBF020C84020CBF020C8F020C9B020C23
:100C5300AD900190E090031D804D900190E0FF90D6
:100C63000321F01215B1804A900190E0FF90032216
:100C7300F0121584803C900190E0FBE4FD7F03803B
:100C830014900190E0FBE4FD7F058009900190E062
:100C9300FBE4FD7F070212D590018FE090031BF068
:100CA300900190E090031AF08008900190E0900387
:0D0CB3001CF07D087F06120A25120963223D
:1007DC0090018EE0B40622900193E090031AF09001
:1007EC000192E090031BF0900195E090031CF07DCA
:1007FC00087F10120A25020963900192E090032EE3
:10080C00F0900193E0900331F0900194E09003306C
:10081C00F0900195E090032FF0900196E090033258
:10082C00F0900197E0900335F0900198E09003343C
:10083C00F0900199E0900333F078497C037D017BC3
:10084C00017A01798B7E007F0F12016E900349743F
:10085C00E1F07B017A0379497D0F121144AC06EC6F
:10086C00900358F0A3EFF078017C007D017B017AB6
:10087C000379497E007F1112016E9001017411F011
:10088C00D2847F027E001214844384027F017E0096
:03089C00121484AF
:01089F002236
:10120F00900109E06401704390032EE0900326F0F3
:10121F0090032FE0900327F0900330E0900328F025
:10122F00900331E0900329F0900332E090032AF00D
:10123F00900333E090032BF0900334E090032CF0F5
:10124F00900335E090032DF01209639001087401AB
:10125F00F07F327E001214849001097401F07D0832
:05126F007F10020A25BA
:0508A000900349EDF09A
:1008A500EF24FC600F24FE604F24F66064240D6085
:1008B500030209507B017A007901900349E0FD129A
:1008C500114490034AEEF0A3EFF090034AE0FEA333
:1008D500E0FD900349E0FC2402F582E43400F58351
:1008E500EDF0EEFF74012CF582E43400F583EFF0B2
:1008F500900349E02402804F78017C007D017B0153
:100905007A0079817E007F0812016E900349E080AC
:100915003678017C007D017B017A0079817E007F3C
:100925000612016E7A00790112114090034AEEF029
:10093500A3EFF090034AE0FEA3E0900008F0EE90EC
:100945000007F0900349E0900101F0D2847F027E18
:0E095500001214844384027F017E0002148489
:050A250090035AEDF002
:100A2A00EF24FC600F24FE604F24F66064240D60FE
:100A3A0003020AD37B017A01790B90035AE0FD1273
:100A4A00114490035BEEF0A3EFF090035BE0FCA38C
:100A5A00E0FDECFF90035AE0FE240CF582E4340139
:100A6A00F583EFF0740B2EF582E43401F583EDF093
:100A7A0090035AE02402804D780B7C017D017B01B2
:100A8A007A01798B7E007F0812016E90035AE0800A
:100A9A0034780B7C017D017B017A01798B7E007FA2
:100AAA000612016E7A01790B12114090035BEEF087
:100ABA00A3EFF090035BE0FEA3E0900111F0EEA338
:100ACA00F090035AE090020BF0D2997F017E000267
:020ADA00148482
:041140007B017D06AC
:0511440090035DEDF0D9
:1011490074FFA3F0A3F0120194FF90035EE0F0A3F3
:10115900E06FF0E4FD90035EE0FEA3E0FF30E019EC
:10116900EEC313FEEF13FFEE64A0FEEF6401FF90E0
:10117900035EEEF0A3EFF0800B90035EE0C313F083
:10118900A3E013F00DEDB408CC740129F9E43AFA9F
:0E11990090035DE014F070AEA3E0FEA3E0FF53
:0111A7002225
:10159400209706E4900317F0229003177401F022B9
:100B800090034974E1F0A37410F0E4A3F0A3F0A380
:100B9000F0A37405F0A3740AF0900326E0900350CC
:100BA000F0900329E0900351F0900328E090035265
:100BB000F0900327E0900353F090032AE090035451
:100BC000F090032DE0900355F090032CE090035635
:100BD000F090032BE0900357F0E4A3F0900336E08D
:100BE000900359F07B017A0379497D11121144ACCD
:100BF00006EC90035AF0A3EFF078017C007D017AB7
:100C00000379497E007F1312016E9001017413F085
:100C1000D2847F027E001214844384027F017E000E
:030C200002148437
:1012D50090034974E1F0A37406F0E4A3F0A3EFF0E2
:1012E500A3EDF0A3EBF07B017A0379497D0612119A
:1012F50044AC06EC90034FF0A3EFF078017C007D41
:10130500017A0379497E007F0812016E900101740C
:1013150008F0D2847F027E001214844384027F0188
:051325007E00021484AB
:10132A0090034974E1F0A37404F0E4A3F0A3F0A3DA
:10133A00F0A37403F0A3746BF0A374A6F078017C95
:10134A00007D017B017A0379497E007F0812016ED4
:10135A009001017408F0D2847F027E001214844343
:09136A0084027F017E000214845C
:03000000020DE806
:0C0DE800787FE4F6D8FD758109020E2F1B
:10009E00E709F608DFFA8046E709F208DFFA803E44
:1000AE0088828C83E709F0A3DFFA8032E309F60831
:1000BE00DFFA8078E309F208DFFA807088828C8399
:1000CE00E309F0A3DFFA806489828A83E0A3F6084D
:1000DE00DFFA805889828A83E0A3F208DFFA804C27
:1000EE0080D280FA80C680D4806980F280338010FE
:1000FE0080A680EA809A80A880DA80E280CA803367
:10010E0089828A83ECFAE493A3C8C582C8CCC583DE
:10011E00CCF0A3C8C582C8CCC583CCDFE9DEE780AE
:10012E000D89828A83E493A3F608DFF9ECFAA9F02D
:10013E00EDFB2289828A83ECFAE0A3C8C582C8CC83
:10014E00C583CCF0A3C8C582C8CCC583CCDFEADE9C
:10015E00E880DB89828A83E493A3F208DFF980CCFE
:10016E0088F0EF60010E4E60C388F0ED2402B404F7
:10017E000050B9F582EB2402B4040050AF2323459E
:06018E0082239000EE73D5
:10019400BB010689828A83E0225002E722BBFE0269
:0901A400E32289828A83E493229C
:1001AD00BC000BBE0029EF8DF084FFADF022E4CC36
:1001BD00F875F008EF2FFFEE33FEEC33FCEE9DECFF
:1001CD00984005FCEE9DFE0FD5F0E9E4CEFD22ED45
:1001DD00F8F5F0EE8420D21CFEADF075F008EF2F8F
:1001ED00FFED33FD4007985006D5F0F222C398FD80
:0501FD000FD5F0EA221D
:10020200BB0110E58229F582E5833AF583E0F5F03A
:10021200A3E0225009E92582F886F008E622BBFE17
:100222000AE92582F8E2F5F008E222E5832AF5835D
:08023200E993F5F0A3E9932222
:100DF4000211A8E493A3F8E493A34003F68001F25C
:100E040008DFF48029E493A3F85407240CC8C333FF
:100E1400C4540F4420C8834004F456800146F6DFCE
:100E2400E4800B01020408102040809005F4E47E65
:100E3400019360BCA3FF543F30E509541FFEE493C3
:100E4400A360010ECF54C025E060A840B8E493A38A
:100E5400FAE493A3F8E493A3C8C582C8CAC583CAB5
:100E6400F0A3C8C582C8CAC583CADFE9DEE780BE6D
:0106FE0000FB
:00000001FF
